{
  "contractName": "TaskRegistry",
  "abi": [
    {
      "constant": false,
      "inputs": [],
      "name": "renounceOwnership",
      "outputs": [],
      "payable": false,
      "stateMutability": "nonpayable",
      "type": "function"
    },
    {
      "constant": true,
      "inputs": [
        {
          "name": "",
          "type": "uint256"
        }
      ],
      "name": "tasks",
      "outputs": [
        {
          "name": "",
          "type": "address"
        }
      ],
      "payable": false,
      "stateMutability": "view",
      "type": "function"
    },
    {
      "constant": true,
      "inputs": [],
      "name": "owner",
      "outputs": [
        {
          "name": "",
          "type": "address"
        }
      ],
      "payable": false,
      "stateMutability": "view",
      "type": "function"
    },
    {
      "constant": true,
      "inputs": [],
      "name": "isOwner",
      "outputs": [
        {
          "name": "",
          "type": "bool"
        }
      ],
      "payable": false,
      "stateMutability": "view",
      "type": "function"
    },
    {
      "constant": false,
      "inputs": [
        {
          "name": "newOwner",
          "type": "address"
        }
      ],
      "name": "transferOwnership",
      "outputs": [],
      "payable": false,
      "stateMutability": "nonpayable",
      "type": "function"
    },
    {
      "anonymous": false,
      "inputs": [
        {
          "indexed": false,
          "name": "_index",
          "type": "uint256"
        },
        {
          "indexed": false,
          "name": "_address",
          "type": "address"
        }
      ],
      "name": "NewTask",
      "type": "event"
    },
    {
      "anonymous": false,
      "inputs": [
        {
          "indexed": true,
          "name": "previousOwner",
          "type": "address"
        },
        {
          "indexed": true,
          "name": "newOwner",
          "type": "address"
        }
      ],
      "name": "OwnershipTransferred",
      "type": "event"
    },
    {
      "constant": true,
      "inputs": [],
      "name": "tasksLength",
      "outputs": [
        {
          "name": "",
          "type": "uint256"
        }
      ],
      "payable": false,
      "stateMutability": "view",
      "type": "function"
    },
    {
      "constant": true,
      "inputs": [
        {
          "name": "_index",
          "type": "uint256"
        }
      ],
      "name": "getTaskAddress",
      "outputs": [
        {
          "name": "",
          "type": "address"
        }
      ],
      "payable": false,
      "stateMutability": "view",
      "type": "function"
    },
    {
      "constant": false,
      "inputs": [
        {
          "name": "_ipfsHash",
          "type": "bytes32"
        },
        {
          "name": "_price",
          "type": "uint256"
        }
      ],
      "name": "create",
      "outputs": [
        {
          "name": "",
          "type": "uint256"
        }
      ],
      "payable": false,
      "stateMutability": "nonpayable",
      "type": "function"
    },
    {
      "constant": true,
      "inputs": [
        {
          "name": "_taskAddress",
          "type": "address"
        }
      ],
      "name": "isTrustedTask",
      "outputs": [
        {
          "name": "",
          "type": "bool"
        }
      ],
      "payable": false,
      "stateMutability": "view",
      "type": "function"
    }
  ],
  "bytecode": "0x6080604052336000806101000a81548173ffffffffffffffffffffffffffffffffffffffff021916908373ffffffffffffffffffffffffffffffffffffffff1602179055506000809054906101000a900473ffffffffffffffffffffffffffffffffffffffff1673ffffffffffffffffffffffffffffffffffffffff16600073ffffffffffffffffffffffffffffffffffffffff167f8be0079c531659141344cd1fd0a4f28419497f9722a3daafe3b4186f6b6457e060405160405180910390a361242c806100cf6000396000f300608060405260043610610099576000357c0100000000000000000000000000000000000000000000000000000000900463ffffffff1680631001ab831461009e57806335efd4d61461010b5780634368f06914610166578063715018a6146101915780638d977672146101a85780638da5cb5b146102155780638f32d59b1461026c578063a042c1321461029b578063f2fde38b146102ea575b600080fd5b3480156100aa57600080fd5b506100c96004803603810190808035906020019092919050505061032d565b604051808273ffffffffffffffffffffffffffffffffffffffff1673ffffffffffffffffffffffffffffffffffffffff16815260200191505060405180910390f35b34801561011757600080fd5b5061014c600480360381019080803573ffffffffffffffffffffffffffffffffffffffff169060200190929190505050610370565b604051808215151515815260200191505060405180910390f35b34801561017257600080fd5b5061017b6103c6565b6040518082815260200191505060405180910390f35b34801561019d57600080fd5b506101a66103d3565b005b3480156101b457600080fd5b506101d3600480360381019080803590602001909291905050506104a5565b604051808273ffffffffffffffffffffffffffffffffffffffff1673ffffffffffffffffffffffffffffffffffffffff16815260200191505060405180910390f35b34801561022157600080fd5b5061022a6104e3565b604051808273ffffffffffffffffffffffffffffffffffffffff1673ffffffffffffffffffffffffffffffffffffffff16815260200191505060405180910390f35b34801561027857600080fd5b5061028161050c565b604051808215151515815260200191505060405180910390f35b3480156102a757600080fd5b506102d4600480360381019080803560001916906020019092919080359060200190929190505050610563565b6040518082815260200191505060405180910390f35b3480156102f657600080fd5b5061032b600480360381019080803573ffffffffffffffffffffffffffffffffffffffff16906020019092919050505061071e565b005b600060018281548110151561033e57fe5b9060005260206000200160009054906101000a900473ffffffffffffffffffffffffffffffffffffffff169050919050565b6000600260008373ffffffffffffffffffffffffffffffffffffffff1673ffffffffffffffffffffffffffffffffffffffff16815260200190815260200160002060009054906101000a900460ff169050919050565b6000600180549050905090565b6103db61050c565b15156103e657600080fd5b600073ffffffffffffffffffffffffffffffffffffffff166000809054906101000a900473ffffffffffffffffffffffffffffffffffffffff1673ffffffffffffffffffffffffffffffffffffffff167f8be0079c531659141344cd1fd0a4f28419497f9722a3daafe3b4186f6b6457e060405160405180910390a360008060006101000a81548173ffffffffffffffffffffffffffffffffffffffff021916908373ffffffffffffffffffffffffffffffffffffffff160217905550565b6001818154811015156104b457fe5b906000526020600020016000915054906101000a900473ffffffffffffffffffffffffffffffffffffffff1681565b60008060009054906101000a900473ffffffffffffffffffffffffffffffffffffffff16905090565b60008060009054906101000a900473ffffffffffffffffffffffffffffffffffffffff1673ffffffffffffffffffffffffffffffffffffffff163373ffffffffffffffffffffffffffffffffffffffff1614905090565b600080338484610571610837565b808473ffffffffffffffffffffffffffffffffffffffff1673ffffffffffffffffffffffffffffffffffffffff16815260200183600019166000191681526020018281526020019350505050604051809103906000f0801580156105d9573d6000803e3d6000fd5b50905060018190806001815401808255809150509060018203906000526020600020016000909192909190916101000a81548173ffffffffffffffffffffffffffffffffffffffff021916908373ffffffffffffffffffffffffffffffffffffffff160217905550506001600260008373ffffffffffffffffffffffffffffffffffffffff1673ffffffffffffffffffffffffffffffffffffffff16815260200190815260200160002060006101000a81548160ff0219169083151502179055507f2f398d28e473d7850a6cba7d9091438768fa4e0ac8c6756326d96726d521400760016106c56103c6565b0382604051808381526020018273ffffffffffffffffffffffffffffffffffffffff1673ffffffffffffffffffffffffffffffffffffffff1681526020019250505060405180910390a160018054905091505092915050565b61072661050c565b151561073157600080fd5b61073a8161073d565b50565b600073ffffffffffffffffffffffffffffffffffffffff168173ffffffffffffffffffffffffffffffffffffffff161415151561077957600080fd5b8073ffffffffffffffffffffffffffffffffffffffff166000809054906101000a900473ffffffffffffffffffffffffffffffffffffffff1673ffffffffffffffffffffffffffffffffffffffff167f8be0079c531659141344cd1fd0a4f28419497f9722a3daafe3b4186f6b6457e060405160405180910390a3806000806101000a81548173ffffffffffffffffffffffffffffffffffffffff021916908373ffffffffffffffffffffffffffffffffffffffff16021790555050565b604051611bb980610848833901905600608060405234801561001057600080fd5b50604051606080611bb9833981018060405281019080805190602001909291908051906020019092919080519060200190929190505050336000806101000a81548173ffffffffffffffffffffffffffffffffffffffff021916908373ffffffffffffffffffffffffffffffffffffffff1602179055506000809054906101000a900473ffffffffffffffffffffffffffffffffffffffff1673ffffffffffffffffffffffffffffffffffffffff16600073ffffffffffffffffffffffffffffffffffffffff167f8be0079c531659141344cd1fd0a4f28419497f9722a3daafe3b4186f6b6457e060405160405180910390a333600260006101000a81548173ffffffffffffffffffffffffffffffffffffffff021916908373ffffffffffffffffffffffffffffffffffffffff16021790555082600160006101000a81548173ffffffffffffffffffffffffffffffffffffffff021916908373ffffffffffffffffffffffffffffffffffffffff16021790555081600381600019169055506000600760006101000a81548160ff021916908360048111156101af57fe5b02179055504260048190555062278d0060045401600581905550806006819055505050506119d7806101e26000396000f3006080604052600436106100f1576000357c0100000000000000000000000000000000000000000000000000000000900463ffffffff16806304a4d240146100f6578063075d47821461012c57806322f3e2d4146101435780632f13b60c14610172578063325a19f1146101a15780633f1d65be146101cc57806343d726d6146102695780634665096d14610280578063715018a6146102ab578063813564de146102c25780638a4d5a67146102ed5780638da5cb5b146103205780638f32d59b146103775780639e498f16146103a6578063c19d93fb146103fd578063e6400bbe14610436578063f2fde38b1461044d575b600080fd5b61012a600480360381019080803573ffffffffffffffffffffffffffffffffffffffff169060200190929190505050610490565b005b34801561013857600080fd5b50610141610761565b005b34801561014f57600080fd5b506101586107ae565b604051808215151515815260200191505060405180910390f35b34801561017e57600080fd5b506101876107f0565b604051808215151515815260200191505060405180910390f35b3480156101ad57600080fd5b506101b66107fc565b6040518082815260200191505060405180910390f35b3480156101d857600080fd5b50610267600480360381019080803573ffffffffffffffffffffffffffffffffffffffff1690602001909291908035906020019092919080359060200190929190803590602001908201803590602001908080601f0160208091040260200160405190810160405280939291908181526020018383808284378201915050505050509192919290505050610802565b005b34801561027557600080fd5b5061027e6108fa565b005b34801561028c57600080fd5b50610295610947565b6040518082815260200191505060405180910390f35b3480156102b757600080fd5b506102c061094d565b005b3480156102ce57600080fd5b506102d7610a1f565b6040518082815260200191505060405180910390f35b3480156102f957600080fd5b50610302610a25565b60405180826000191660001916815260200191505060405180910390f35b34801561032c57600080fd5b50610335610a2b565b604051808273ffffffffffffffffffffffffffffffffffffffff1673ffffffffffffffffffffffffffffffffffffffff16815260200191505060405180910390f35b34801561038357600080fd5b5061038c610a51565b604051808215151515815260200191505060405180910390f35b3480156103b257600080fd5b506103bb610aa8565b604051808273ffffffffffffffffffffffffffffffffffffffff1673ffffffffffffffffffffffffffffffffffffffff16815260200191505060405180910390f35b34801561040957600080fd5b50610412610ace565b6040518082600481111561042257fe5b60ff16815260200191505060405180910390f35b34801561044257600080fd5b5061044b610ae1565b005b34801561045957600080fd5b5061048e600480360381019080803573ffffffffffffffffffffffffffffffffffffffff169060200190929190505050610b2e565b005b600061049a6107f0565b1515156104a657600080fd5b600160048111156104b357fe5b600760009054906101000a900460ff1660048111156104ce57fe5b1415156104da57600080fd5b600860008373ffffffffffffffffffffffffffffffffffffffff1673ffffffffffffffffffffffffffffffffffffffff168152602001908152602001600020905080600101543414151561052d57600080fd5b6004600760006101000a81548160ff0219169083600481111561054c57fe5b0217905550308282600101548360020154610565610c47565b808573ffffffffffffffffffffffffffffffffffffffff1673ffffffffffffffffffffffffffffffffffffffff1681526020018473ffffffffffffffffffffffffffffffffffffffff1673ffffffffffffffffffffffffffffffffffffffff168152602001838152602001828152602001945050505050604051809103906000f0801580156105f8573d6000803e3d6000fd5b50600960006101000a81548173ffffffffffffffffffffffffffffffffffffffff021916908373ffffffffffffffffffffffffffffffffffffffff160217905550600960009054906101000a900473ffffffffffffffffffffffffffffffffffffffff1673ffffffffffffffffffffffffffffffffffffffff16631b9265b8346040518263ffffffff167c01000000000000000000000000000000000000000000000000000000000281526004016000604051808303818588803b1580156106bf57600080fd5b505af11580156106d3573d6000803e3d6000fd5b50505050507fbe4f2c220f5811a2f045205860586f8923d800b0b4f25ea2be4a0d89e3e803a2600960009054906101000a900473ffffffffffffffffffffffffffffffffffffffff16604051808273ffffffffffffffffffffffffffffffffffffffff1673ffffffffffffffffffffffffffffffffffffffff16815260200191505060405180910390a15050565b610769610a51565b151561077457600080fd5b61077c6107f0565b15151561078857600080fd5b6001600760006101000a81548160ff021916908360048111156107a757fe5b0217905550565b6000600360048111156107bd57fe5b600760009054906101000a900460ff1660048111156107d857fe5b141580156107eb57506107e96107f0565b155b905090565b60006005544210905090565b60045481565b6080604051908101604052808573ffffffffffffffffffffffffffffffffffffffff16815260200184815260200183815260200182815250600860008673ffffffffffffffffffffffffffffffffffffffff1673ffffffffffffffffffffffffffffffffffffffff16815260200190815260200160002060008201518160000160006101000a81548173ffffffffffffffffffffffffffffffffffffffff021916908373ffffffffffffffffffffffffffffffffffffffff160217905550602082015181600101556040820151816002015560608201518160030190805190602001906108f0929190610c57565b5090505050505050565b610902610a51565b151561090d57600080fd5b6109156107f0565b15151561092157600080fd5b6003600760006101000a81548160ff0219169083600481111561094057fe5b0217905550565b60055481565b610955610a51565b151561096057600080fd5b600073ffffffffffffffffffffffffffffffffffffffff166000809054906101000a900473ffffffffffffffffffffffffffffffffffffffff1673ffffffffffffffffffffffffffffffffffffffff167f8be0079c531659141344cd1fd0a4f28419497f9722a3daafe3b4186f6b6457e060405160405180910390a360008060006101000a81548173ffffffffffffffffffffffffffffffffffffffff021916908373ffffffffffffffffffffffffffffffffffffffff160217905550565b60065481565b60035481565b600160009054906101000a900473ffffffffffffffffffffffffffffffffffffffff1681565b60008060009054906101000a900473ffffffffffffffffffffffffffffffffffffffff1673ffffffffffffffffffffffffffffffffffffffff163373ffffffffffffffffffffffffffffffffffffffff1614905090565b600260009054906101000a900473ffffffffffffffffffffffffffffffffffffffff1681565b600760009054906101000a900460ff1681565b610ae9610a51565b1515610af457600080fd5b610afc6107f0565b151515610b0857600080fd5b6002600760006101000a81548160ff02191690836004811115610b2757fe5b0217905550565b610b36610a51565b1515610b4157600080fd5b610b4a81610b4d565b50565b600073ffffffffffffffffffffffffffffffffffffffff168173ffffffffffffffffffffffffffffffffffffffff1614151515610b8957600080fd5b8073ffffffffffffffffffffffffffffffffffffffff166000809054906101000a900473ffffffffffffffffffffffffffffffffffffffff1673ffffffffffffffffffffffffffffffffffffffff167f8be0079c531659141344cd1fd0a4f28419497f9722a3daafe3b4186f6b6457e060405160405180910390a3806000806101000a81548173ffffffffffffffffffffffffffffffffffffffff021916908373ffffffffffffffffffffffffffffffffffffffff16021790555050565b604051610caf80610cfd83390190565b828054600181600116156101000203166002900490600052602060002090601f016020900481019282601f10610c9857805160ff1916838001178555610cc6565b82800160010185558215610cc6579182015b82811115610cc5578251825591602001919060010190610caa565b5b509050610cd39190610cd7565b5090565b610cf991905b80821115610cf5576000816000905550600101610cdd565b5090565b905600608060405260008060006101000a81548160ff0219169083600681111561002257fe5b021790555034801561003357600080fd5b50604051608080610caf8339810180604052810190808051906020019092919080519060200190929190805190602001909291908051906020019092919050505083600060016101000a81548173ffffffffffffffffffffffffffffffffffffffff021916908373ffffffffffffffffffffffffffffffffffffffff16021790555082600160006101000a81548173ffffffffffffffffffffffffffffffffffffffff021916908373ffffffffffffffffffffffffffffffffffffffff16021790555081600281905550426003819055508042016004819055507f70e2a5a9a9f56678f38366039b8c4cf0d3de70e8d6ed5ef40e329a707f33e7756000809054906101000a900460ff166040518082600681111561014d57fe5b60ff16815260200191505060405180910390a150505050610b3c806101736000396000f300608060405260043610610077576000357c0100000000000000000000000000000000000000000000000000000000900463ffffffff168062697cdd1461007c5780631b9265b8146100ba5780634fd6137c146100c4578063a56142a5146100db578063c040e6b8146100f2578063f29beda01461012b575b600080fd5b34801561008857600080fd5b506100b8600480360381019080803560ff1690602001909291908035600019169060200190929190505050610169565b005b6100c2610473565b005b3480156100d057600080fd5b506100d96104ad565b005b3480156100e757600080fd5b506100f061065f565b005b3480156100fe57600080fd5b50610107610706565b6040518082600681111561011757fe5b60ff16815260200191505060405180910390f35b34801561013757600080fd5b50610167600480360381019080803560ff169060200190929190803560001916906020019092919050505061071c565b005b600060019054906101000a900473ffffffffffffffffffffffffffffffffffffffff1673ffffffffffffffffffffffffffffffffffffffff16638da5cb5b6040518163ffffffff167c0100000000000000000000000000000000000000000000000000000000028152600401602060405180830381600087803b1580156101ef57600080fd5b505af1158015610203573d6000803e3d6000fd5b505050506040513d602081101561021957600080fd5b810190808051906020019092919050505073ffffffffffffffffffffffffffffffffffffffff163373ffffffffffffffffffffffffffffffffffffffff1614151561026357600080fd5b600280600681111561027157fe5b610279610706565b600681111561028457fe5b14151561029057600080fd5b60018360ff16101515156102a357600080fd5b60058360ff16111515156102b657600080fd5b6102c06003610aa6565b7f9bfbd57a975bb77e3a7f3c212888748d02a962488f7100d928e4967ad8ee9239600060019054906101000a900473ffffffffffffffffffffffffffffffffffffffff1673ffffffffffffffffffffffffffffffffffffffff16638da5cb5b6040518163ffffffff167c0100000000000000000000000000000000000000000000000000000000028152600401602060405180830381600087803b15801561036757600080fd5b505af115801561037b573d6000803e3d6000fd5b505050506040513d602081101561039157600080fd5b8101908080519060200190929190505050600160009054906101000a900473ffffffffffffffffffffffffffffffffffffffff1660018686604051808673ffffffffffffffffffffffffffffffffffffffff1673ffffffffffffffffffffffffffffffffffffffff1681526020018573ffffffffffffffffffffffffffffffffffffffff1673ffffffffffffffffffffffffffffffffffffffff16815260200184600181111561043d57fe5b60ff1681526020018360ff1660ff16815260200182600019166000191681526020019550505050505060405180910390a1505050565b600080600681111561048157fe5b610489610706565b600681111561049457fe5b1415156104a057600080fd5b6104aa6001610aa6565b50565b600160009054906101000a900473ffffffffffffffffffffffffffffffffffffffff1673ffffffffffffffffffffffffffffffffffffffff163373ffffffffffffffffffffffffffffffffffffffff1614806105f45750600060019054906101000a900473ffffffffffffffffffffffffffffffffffffffff1673ffffffffffffffffffffffffffffffffffffffff16638da5cb5b6040518163ffffffff167c0100000000000000000000000000000000000000000000000000000000028152600401602060405180830381600087803b15801561058a57600080fd5b505af115801561059e573d6000803e3d6000fd5b505050506040513d60208110156105b457600080fd5b810190808051906020019092919050505073ffffffffffffffffffffffffffffffffffffffff163373ffffffffffffffffffffffffffffffffffffffff16145b15156105ff57600080fd5b6003600681111561060c57fe5b610614610706565b600681111561061f57fe5b148061064857506002600681111561063357fe5b61063b610706565b600681111561064657fe5b145b151561065357600080fd5b61065d6004610aa6565b565b600160009054906101000a900473ffffffffffffffffffffffffffffffffffffffff1673ffffffffffffffffffffffffffffffffffffffff163373ffffffffffffffffffffffffffffffffffffffff161415156106bb57600080fd5b60018060068111156106c957fe5b6106d1610706565b60068111156106dc57fe5b1415156106e857600080fd5b42600454101515156106f957600080fd5b6107036002610aa6565b50565b60008060009054906101000a900460ff16905090565b600160009054906101000a900473ffffffffffffffffffffffffffffffffffffffff1673ffffffffffffffffffffffffffffffffffffffff163373ffffffffffffffffffffffffffffffffffffffff1614151561077857600080fd5b600380600681111561078657fe5b61078e610706565b600681111561079957fe5b1415156107a557600080fd5b60018360ff16101515156107b857600080fd5b60058360ff16111515156107cb57600080fd5b6107d56006610aa6565b7f9bfbd57a975bb77e3a7f3c212888748d02a962488f7100d928e4967ad8ee9239600160009054906101000a900473ffffffffffffffffffffffffffffffffffffffff16600060019054906101000a900473ffffffffffffffffffffffffffffffffffffffff1673ffffffffffffffffffffffffffffffffffffffff16638da5cb5b6040518163ffffffff167c0100000000000000000000000000000000000000000000000000000000028152600401602060405180830381600087803b15801561089f57600080fd5b505af11580156108b3573d6000803e3d6000fd5b505050506040513d60208110156108c957600080fd5b810190808051906020019092919050505060008686604051808673ffffffffffffffffffffffffffffffffffffffff1673ffffffffffffffffffffffffffffffffffffffff1681526020018573ffffffffffffffffffffffffffffffffffffffff1673ffffffffffffffffffffffffffffffffffffffff16815260200184600181111561095257fe5b60ff1681526020018360ff1660ff16815260200182600019166000191681526020019550505050505060405180910390a1600060019054906101000a900473ffffffffffffffffffffffffffffffffffffffff1673ffffffffffffffffffffffffffffffffffffffff16638da5cb5b6040518163ffffffff167c0100000000000000000000000000000000000000000000000000000000028152600401602060405180830381600087803b158015610a0957600080fd5b505af1158015610a1d573d6000803e3d6000fd5b505050506040513d6020811015610a3357600080fd5b810190808051906020019092919050505073ffffffffffffffffffffffffffffffffffffffff166108fc3073ffffffffffffffffffffffffffffffffffffffff16319081150290604051600060405180830381858888f19350505050158015610aa0573d6000803e3d6000fd5b50505050565b806000806101000a81548160ff02191690836006811115610ac357fe5b02179055507f70e2a5a9a9f56678f38366039b8c4cf0d3de70e8d6ed5ef40e329a707f33e7758160405180826006811115610afa57fe5b60ff16815260200191505060405180910390a1505600a165627a7a7230582065c5037e0f3dfc48e2eb4fae5d1d6cbad80ea96e5b0627e6b7c7db79d09a400b0029a165627a7a72305820d31d88a4a1ba016f1a4f0c67bc140182f628d0cd2c6851a40f3bc96925faeba30029a165627a7a723058209c936910fb801e07bd536d20b7a4e8f2cb92e29d3ecda1ea84d1010b7176c3a10029",
  "source": "pragma solidity ^0.4.23;\n\nimport \"openzeppelin-solidity/contracts/ownership/Ownable.sol\";\nimport \"./Task.sol\";\n\ncontract TaskRegistry is Ownable{\n    /*\n    * Events\n    */\n    event NewTask(uint _index, address _address);\n\n    /*\n    * Storage\n    */\n    address[] public tasks;\n    mapping(address => bool) tasksMap;\n\n    /// @dev tasksLength(): Return number of tasks\n    function tasksLength()\n    public\n    constant\n    returns (uint)\n    {\n        return tasks.length;\n    }\n\n    /// @dev getTaskAddress(): Return task address\n    /// @param _index the index of the task\n    function getTaskAddress(uint _index)\n    public\n    constant\n    returns (address)\n    {\n        return tasks[_index];\n    }\n\n    /// @dev create(): Create a new task\n    /// @param _ipfsHash Hash of data on ipfsHash\n    /// @param _price Ask price in wei\n    function create(\n        bytes32 _ipfsHash,\n        uint _price\n    )\n    public\n    returns (uint)\n    {\n        Task newTask = new Task(msg.sender, _ipfsHash, _price);\n        tasks.push(newTask);\n        tasksMap[newTask] = true;\n\n        emit NewTask(tasksLength() - 1, address(newTask));\n        return tasks.length;\n    }\n\n    function isTrustedTask(\n        address _taskAddress\n    )\n    public\n    view\n    returns(bool)\n    {\n        return tasksMap[_taskAddress];\n    }\n}",
  "sourcePath": "/home/alejandro/workspace/synapseslabs/freelo/contracts/TaskRegistry.sol",
  "compiler": {
    "name": "solc",
    "version": "0.4.24+commit.e67f0147.Emscripten.clang"
  },
  "schemaVersion": "2.0.0",
  "updatedAt": "2018-11-15T15:36:13.322Z"
}