{
  "contractName": "WorkContract",
  "abi": [
    {
      "inputs": [
        {
          "name": "_taskContractAddress",
          "type": "address"
        },
        {
          "name": "_worker",
          "type": "address"
        },
        {
          "name": "_price",
          "type": "uint256"
        },
        {
          "name": "_duration",
          "type": "uint256"
        }
      ],
      "payable": false,
      "stateMutability": "nonpayable",
      "type": "constructor"
    },
    {
      "anonymous": false,
      "inputs": [
        {
          "indexed": false,
          "name": "stage",
          "type": "uint8"
        }
      ],
      "name": "WorkContractChange",
      "type": "event"
    },
    {
      "anonymous": false,
      "inputs": [
        {
          "indexed": false,
          "name": "reviewer",
          "type": "address"
        },
        {
          "indexed": false,
          "name": "reviewee",
          "type": "address"
        },
        {
          "indexed": false,
          "name": "revieweeRole",
          "type": "uint8"
        },
        {
          "indexed": false,
          "name": "rating",
          "type": "uint8"
        },
        {
          "indexed": false,
          "name": "ipfsHash",
          "type": "bytes32"
        }
      ],
      "name": "WorkReview",
      "type": "event"
    },
    {
      "constant": false,
      "inputs": [],
      "name": "pay",
      "outputs": [],
      "payable": true,
      "stateMutability": "payable",
      "type": "function"
    },
    {
      "constant": false,
      "inputs": [],
      "name": "workerConfirmDelivery",
      "outputs": [],
      "payable": false,
      "stateMutability": "nonpayable",
      "type": "function"
    },
    {
      "constant": false,
      "inputs": [
        {
          "name": "_rating",
          "type": "uint8"
        },
        {
          "name": "_ipfsHash",
          "type": "bytes32"
        }
      ],
      "name": "clientConfirmReceipt",
      "outputs": [],
      "payable": false,
      "stateMutability": "nonpayable",
      "type": "function"
    },
    {
      "constant": false,
      "inputs": [
        {
          "name": "_rating",
          "type": "uint8"
        },
        {
          "name": "_ipfsHash",
          "type": "bytes32"
        }
      ],
      "name": "workerCollectPayout",
      "outputs": [],
      "payable": false,
      "stateMutability": "nonpayable",
      "type": "function"
    },
    {
      "constant": false,
      "inputs": [],
      "name": "openDispute",
      "outputs": [],
      "payable": false,
      "stateMutability": "nonpayable",
      "type": "function"
    },
    {
      "constant": true,
      "inputs": [],
      "name": "stage",
      "outputs": [
        {
          "name": "_stage",
          "type": "uint8"
        }
      ],
      "payable": false,
      "stateMutability": "view",
      "type": "function"
    }
  ],
  "bytecode": "0x608060405260008060006101000a81548160ff0219169083600681111561002257fe5b021790555034801561003357600080fd5b50604051608080610caf8339810180604052810190808051906020019092919080519060200190929190805190602001909291908051906020019092919050505083600060016101000a81548173ffffffffffffffffffffffffffffffffffffffff021916908373ffffffffffffffffffffffffffffffffffffffff16021790555082600160006101000a81548173ffffffffffffffffffffffffffffffffffffffff021916908373ffffffffffffffffffffffffffffffffffffffff16021790555081600281905550426003819055508042016004819055507f70e2a5a9a9f56678f38366039b8c4cf0d3de70e8d6ed5ef40e329a707f33e7756000809054906101000a900460ff166040518082600681111561014d57fe5b60ff16815260200191505060405180910390a150505050610b3c806101736000396000f300608060405260043610610077576000357c0100000000000000000000000000000000000000000000000000000000900463ffffffff168062697cdd1461007c5780631b9265b8146100ba5780634fd6137c146100c4578063a56142a5146100db578063c040e6b8146100f2578063f29beda01461012b575b600080fd5b34801561008857600080fd5b506100b8600480360381019080803560ff1690602001909291908035600019169060200190929190505050610169565b005b6100c2610473565b005b3480156100d057600080fd5b506100d96104ad565b005b3480156100e757600080fd5b506100f061065f565b005b3480156100fe57600080fd5b50610107610706565b6040518082600681111561011757fe5b60ff16815260200191505060405180910390f35b34801561013757600080fd5b50610167600480360381019080803560ff169060200190929190803560001916906020019092919050505061071c565b005b600060019054906101000a900473ffffffffffffffffffffffffffffffffffffffff1673ffffffffffffffffffffffffffffffffffffffff16638da5cb5b6040518163ffffffff167c0100000000000000000000000000000000000000000000000000000000028152600401602060405180830381600087803b1580156101ef57600080fd5b505af1158015610203573d6000803e3d6000fd5b505050506040513d602081101561021957600080fd5b810190808051906020019092919050505073ffffffffffffffffffffffffffffffffffffffff163373ffffffffffffffffffffffffffffffffffffffff1614151561026357600080fd5b600280600681111561027157fe5b610279610706565b600681111561028457fe5b14151561029057600080fd5b60018360ff16101515156102a357600080fd5b60058360ff16111515156102b657600080fd5b6102c06003610aa6565b7f9bfbd57a975bb77e3a7f3c212888748d02a962488f7100d928e4967ad8ee9239600060019054906101000a900473ffffffffffffffffffffffffffffffffffffffff1673ffffffffffffffffffffffffffffffffffffffff16638da5cb5b6040518163ffffffff167c0100000000000000000000000000000000000000000000000000000000028152600401602060405180830381600087803b15801561036757600080fd5b505af115801561037b573d6000803e3d6000fd5b505050506040513d602081101561039157600080fd5b8101908080519060200190929190505050600160009054906101000a900473ffffffffffffffffffffffffffffffffffffffff1660018686604051808673ffffffffffffffffffffffffffffffffffffffff1673ffffffffffffffffffffffffffffffffffffffff1681526020018573ffffffffffffffffffffffffffffffffffffffff1673ffffffffffffffffffffffffffffffffffffffff16815260200184600181111561043d57fe5b60ff1681526020018360ff1660ff16815260200182600019166000191681526020019550505050505060405180910390a1505050565b600080600681111561048157fe5b610489610706565b600681111561049457fe5b1415156104a057600080fd5b6104aa6001610aa6565b50565b600160009054906101000a900473ffffffffffffffffffffffffffffffffffffffff1673ffffffffffffffffffffffffffffffffffffffff163373ffffffffffffffffffffffffffffffffffffffff1614806105f45750600060019054906101000a900473ffffffffffffffffffffffffffffffffffffffff1673ffffffffffffffffffffffffffffffffffffffff16638da5cb5b6040518163ffffffff167c0100000000000000000000000000000000000000000000000000000000028152600401602060405180830381600087803b15801561058a57600080fd5b505af115801561059e573d6000803e3d6000fd5b505050506040513d60208110156105b457600080fd5b810190808051906020019092919050505073ffffffffffffffffffffffffffffffffffffffff163373ffffffffffffffffffffffffffffffffffffffff16145b15156105ff57600080fd5b6003600681111561060c57fe5b610614610706565b600681111561061f57fe5b148061064857506002600681111561063357fe5b61063b610706565b600681111561064657fe5b145b151561065357600080fd5b61065d6004610aa6565b565b600160009054906101000a900473ffffffffffffffffffffffffffffffffffffffff1673ffffffffffffffffffffffffffffffffffffffff163373ffffffffffffffffffffffffffffffffffffffff161415156106bb57600080fd5b60018060068111156106c957fe5b6106d1610706565b60068111156106dc57fe5b1415156106e857600080fd5b42600454101515156106f957600080fd5b6107036002610aa6565b50565b60008060009054906101000a900460ff16905090565b600160009054906101000a900473ffffffffffffffffffffffffffffffffffffffff1673ffffffffffffffffffffffffffffffffffffffff163373ffffffffffffffffffffffffffffffffffffffff1614151561077857600080fd5b600380600681111561078657fe5b61078e610706565b600681111561079957fe5b1415156107a557600080fd5b60018360ff16101515156107b857600080fd5b60058360ff16111515156107cb57600080fd5b6107d56006610aa6565b7f9bfbd57a975bb77e3a7f3c212888748d02a962488f7100d928e4967ad8ee9239600160009054906101000a900473ffffffffffffffffffffffffffffffffffffffff16600060019054906101000a900473ffffffffffffffffffffffffffffffffffffffff1673ffffffffffffffffffffffffffffffffffffffff16638da5cb5b6040518163ffffffff167c0100000000000000000000000000000000000000000000000000000000028152600401602060405180830381600087803b15801561089f57600080fd5b505af11580156108b3573d6000803e3d6000fd5b505050506040513d60208110156108c957600080fd5b810190808051906020019092919050505060008686604051808673ffffffffffffffffffffffffffffffffffffffff1673ffffffffffffffffffffffffffffffffffffffff1681526020018573ffffffffffffffffffffffffffffffffffffffff1673ffffffffffffffffffffffffffffffffffffffff16815260200184600181111561095257fe5b60ff1681526020018360ff1660ff16815260200182600019166000191681526020019550505050505060405180910390a1600060019054906101000a900473ffffffffffffffffffffffffffffffffffffffff1673ffffffffffffffffffffffffffffffffffffffff16638da5cb5b6040518163ffffffff167c0100000000000000000000000000000000000000000000000000000000028152600401602060405180830381600087803b158015610a0957600080fd5b505af1158015610a1d573d6000803e3d6000fd5b505050506040513d6020811015610a3357600080fd5b810190808051906020019092919050505073ffffffffffffffffffffffffffffffffffffffff166108fc3073ffffffffffffffffffffffffffffffffffffffff16319081150290604051600060405180830381858888f19350505050158015610aa0573d6000803e3d6000fd5b50505050565b806000806101000a81548160ff02191690836006811115610ac357fe5b02179055507f70e2a5a9a9f56678f38366039b8c4cf0d3de70e8d6ed5ef40e329a707f33e7758160405180826006811115610afa57fe5b60ff16815260200191505060405180910390a1505600a165627a7a7230582065c5037e0f3dfc48e2eb4fae5d1d6cbad80ea96e5b0627e6b7c7db79d09a400b0029",
  "source": "pragma solidity ^0.4.23;\n\nimport \"./Task.sol\";\n\ncontract WorkContract {\n    /*\n     * Events\n     */\n    event WorkContractChange(Stages stage);\n    event WorkReview(address reviewer, address reviewee, Roles revieweeRole, uint8 rating, bytes32 ipfsHash);\n\n    /*\n    * Storage\n    */\n    Stages internal internalStage = Stages.AWAITING_PAYMENT;\n    Task taskContract;\n    address worker;\n    uint price;\n    uint created;\n    uint endDate;\n\n    /*\n    * Enum\n    */\n    enum Stages {\n        AWAITING_PAYMENT, // Buyer hasn't paid full amount yet\n        IN_ESCROW, // Payment has been received but not distributed to seller\n        CLIENT_PENDING,\n        WORKER_PENDING,\n        IN_DISPUTE, // We are in a dispute\n        REVIEW_PERIOD, // Time for reviews (only when transaction did not go through)\n        COMPLETE // It's all over\n    }\n\n    enum Roles {\n        CLIENT,\n        WORKER\n    }\n\n    /*\n    * Modifiers\n    */\n    modifier isClient() {\n    require(msg.sender == taskContract.owner());\n        _;\n    }\n\n    modifier isWorker() {\n        require(msg.sender == worker);\n        _;\n    }\n\n    modifier atStage(Stages _stage) {\n        require(stage() == _stage);\n        _;\n    }\n\n    constructor(\n        address _taskContractAddress,\n        address _worker,\n        uint _price,\n        uint _duration\n    ) public{\n        taskContract = Task(_taskContractAddress);\n        worker = _worker;\n        price = _price;\n        created = now;\n        endDate = now + _duration;\n\n        emit WorkContractChange(internalStage);\n    }\n\n    // Pay for publication\n    function pay()\n    public\n    payable\n    atStage(Stages.AWAITING_PAYMENT)\n    {\n        setStage(Stages.IN_ESCROW);\n    }\n\n    function workerConfirmDelivery()\n    public\n    isWorker\n    atStage(Stages.IN_ESCROW)\n    {\n        require(endDate >= now);\n        setStage(Stages.CLIENT_PENDING);\n    }\n\n    function clientConfirmReceipt(uint8 _rating, bytes32 _ipfsHash)\n    public\n    isClient\n    atStage(Stages.CLIENT_PENDING)\n    {\n        // Checks\n        require(_rating >= 1);\n        require(_rating <= 5);\n\n        // State changes\n        setStage(Stages.WORKER_PENDING);\n\n        // Events\n        emit WorkReview(taskContract.owner(), worker, Roles.WORKER, _rating, _ipfsHash);\n\n    }\n\n    function workerCollectPayout(uint8 _rating, bytes32 _ipfsHash)\n    public\n    isWorker\n    atStage(Stages.WORKER_PENDING)\n    {\n        // Checks\n        require(_rating >= 1);\n        require(_rating <= 5);\n\n        // State changes\n        setStage(Stages.COMPLETE);\n\n        // Events\n        emit WorkReview(worker, taskContract.owner(), Roles.CLIENT, _rating, _ipfsHash);\n\n        // Transfers\n        // Send contract funds to client (ie owner of Task)\n        // Transfering money always needs to be the last thing we do, do avoid\n        // rentrancy bugs. (Though here the client would just be getting their own money)\n        taskContract.owner().transfer(address(this).balance);\n    }\n\n    function openDispute()\n    public\n    {\n        // Must be worker or client\n        require(\n            (msg.sender == worker) ||\n            (msg.sender == taskContract.owner())\n        );\n\n        // Must be in a valid stage\n        require(\n            (stage() == Stages.WORKER_PENDING) ||\n            (stage() == Stages.CLIENT_PENDING)\n        );\n\n        setStage(Stages.IN_DISPUTE);\n\n        // TODO: Create a dispute contract?\n        // Right now there's no way to exit this state.\n    }\n\n    function stage()\n    public\n    view\n    returns (Stages _stage)\n    {\n        return internalStage;\n    }\n\n    function setStage(Stages _stage)\n    internal\n    {\n        internalStage = _stage;\n        emit WorkContractChange(_stage);\n    }\n}",
  "sourcePath": "/home/alejandro/workspace/synapseslabs/freelo/contracts/WorkContract.sol",
  "compiler": {
    "name": "solc",
    "version": "0.4.24+commit.e67f0147.Emscripten.clang"
  },
  "schemaVersion": "2.0.0",
  "updatedAt": "2018-11-15T15:36:13.335Z"
}